:020000020000FC
:1000000008ED0CBF00E007BF08ED0CBF00E006BF25
:100010000FEF09BF01E001B900E002B919D035D0F6
:100020006F936FEF2ED068EC2CD06F9143D06F930D
:100030006FEF27D06F91F3CF18E0109A000037FDD3
:1000400006D0330F109803D01A95B9F70895089584
:1000500010980FEF0A95F1F708950F930AEF04D067
:100060000A95F1F70F9108954F934AEF4A95F1F7EA
:100070004F9108950F930AE0F0DF0A95E9F70F9189
:100080000895F8DF6A95E9F7089548E151E01FD037
:1000900063956517E1F768E1651B19F011D06A9562
:1000A000E9F7D6DF6F9364E1ECDF6F9153954A95E2
:1000B00071F7089548E104D04A95E9F7C9DF08953A
:1000C00030E0BADF30E0B8DF30E0B6DF089532E389
:0C00D000B3DF3FEFB1DF30E0AFDF089599
:00000001FF
